{
  "_format": "hh-sol-artifact-1",
  "contractName": "Parko",
  "sourceName": "contracts/Parko.sol",
  "abi": [
    {
      "anonymous": false,
      "inputs": [
        {
          "indexed": true,
          "internalType": "address",
          "name": "bookerId",
          "type": "address"
        },
        {
          "indexed": false,
          "internalType": "string",
          "name": "bookerName",
          "type": "string"
        },
        {
          "indexed": false,
          "internalType": "string",
          "name": "addr",
          "type": "string"
        },
        {
          "indexed": false,
          "internalType": "string",
          "name": "vehicleName",
          "type": "string"
        },
        {
          "indexed": false,
          "internalType": "string",
          "name": "date",
          "type": "string"
        },
        {
          "indexed": false,
          "internalType": "string",
          "name": "bookingTime",
          "type": "string"
        },
        {
          "indexed": false,
          "internalType": "uint256",
          "name": "lat",
          "type": "uint256"
        },
        {
          "indexed": false,
          "internalType": "uint256",
          "name": "long",
          "type": "uint256"
        },
        {
          "indexed": false,
          "internalType": "uint256",
          "name": "pricePerHour",
          "type": "uint256"
        }
      ],
      "name": "SpotBooked",
      "type": "event"
    },
    {
      "anonymous": false,
      "inputs": [
        {
          "indexed": true,
          "internalType": "address",
          "name": "id",
          "type": "address"
        },
        {
          "indexed": false,
          "internalType": "string",
          "name": "name",
          "type": "string"
        },
        {
          "indexed": false,
          "internalType": "string",
          "name": "addr",
          "type": "string"
        },
        {
          "indexed": false,
          "internalType": "bool",
          "name": "isSpotAvailable",
          "type": "bool"
        },
        {
          "indexed": false,
          "internalType": "uint256",
          "name": "pricePerHour",
          "type": "uint256"
        },
        {
          "indexed": false,
          "internalType": "uint256",
          "name": "lat",
          "type": "uint256"
        },
        {
          "indexed": false,
          "internalType": "uint256",
          "name": "long",
          "type": "uint256"
        }
      ],
      "name": "SpotForRentAdded",
      "type": "event"
    },
    {
      "inputs": [
        {
          "internalType": "address",
          "name": "_bookerId",
          "type": "address"
        },
        {
          "internalType": "string",
          "name": "_bookerName",
          "type": "string"
        },
        {
          "internalType": "string",
          "name": "_addr",
          "type": "string"
        },
        {
          "internalType": "string",
          "name": "_vehicleName",
          "type": "string"
        },
        {
          "internalType": "string",
          "name": "_date",
          "type": "string"
        },
        {
          "internalType": "string",
          "name": "_bookingTime",
          "type": "string"
        },
        {
          "internalType": "uint256",
          "name": "_lat",
          "type": "uint256"
        },
        {
          "internalType": "uint256",
          "name": "_long",
          "type": "uint256"
        },
        {
          "internalType": "uint256",
          "name": "_pricePerHour",
          "type": "uint256"
        }
      ],
      "name": "bookSpot",
      "outputs": [],
      "stateMutability": "nonpayable",
      "type": "function"
    },
    {
      "inputs": [
        {
          "internalType": "uint256",
          "name": "",
          "type": "uint256"
        }
      ],
      "name": "bookingList",
      "outputs": [
        {
          "internalType": "address",
          "name": "bookerId",
          "type": "address"
        },
        {
          "internalType": "string",
          "name": "bookerName",
          "type": "string"
        },
        {
          "internalType": "string",
          "name": "addr",
          "type": "string"
        },
        {
          "internalType": "string",
          "name": "vehicleName",
          "type": "string"
        },
        {
          "internalType": "string",
          "name": "date",
          "type": "string"
        },
        {
          "internalType": "string",
          "name": "bookingTime",
          "type": "string"
        },
        {
          "internalType": "uint256",
          "name": "lat",
          "type": "uint256"
        },
        {
          "internalType": "uint256",
          "name": "long",
          "type": "uint256"
        },
        {
          "internalType": "uint256",
          "name": "pricePerHour",
          "type": "uint256"
        }
      ],
      "stateMutability": "view",
      "type": "function"
    },
    {
      "inputs": [],
      "name": "getBookingList",
      "outputs": [
        {
          "components": [
            {
              "internalType": "address",
              "name": "bookerId",
              "type": "address"
            },
            {
              "internalType": "string",
              "name": "bookerName",
              "type": "string"
            },
            {
              "internalType": "string",
              "name": "addr",
              "type": "string"
            },
            {
              "internalType": "string",
              "name": "vehicleName",
              "type": "string"
            },
            {
              "internalType": "string",
              "name": "date",
              "type": "string"
            },
            {
              "internalType": "string",
              "name": "bookingTime",
              "type": "string"
            },
            {
              "internalType": "uint256",
              "name": "lat",
              "type": "uint256"
            },
            {
              "internalType": "uint256",
              "name": "long",
              "type": "uint256"
            },
            {
              "internalType": "uint256",
              "name": "pricePerHour",
              "type": "uint256"
            }
          ],
          "internalType": "struct Parko.Booking[]",
          "name": "",
          "type": "tuple[]"
        }
      ],
      "stateMutability": "view",
      "type": "function"
    },
    {
      "inputs": [],
      "name": "getRentList",
      "outputs": [
        {
          "components": [
            {
              "internalType": "address",
              "name": "id",
              "type": "address"
            },
            {
              "internalType": "string",
              "name": "name",
              "type": "string"
            },
            {
              "internalType": "string",
              "name": "addr",
              "type": "string"
            },
            {
              "internalType": "bool",
              "name": "isSpotAvailable",
              "type": "bool"
            },
            {
              "internalType": "uint256",
              "name": "pricePerHour",
              "type": "uint256"
            },
            {
              "internalType": "uint256",
              "name": "lat",
              "type": "uint256"
            },
            {
              "internalType": "uint256",
              "name": "long",
              "type": "uint256"
            }
          ],
          "internalType": "struct Parko.ParkingSpotForRent[]",
          "name": "",
          "type": "tuple[]"
        }
      ],
      "stateMutability": "view",
      "type": "function"
    },
    {
      "inputs": [
        {
          "internalType": "string",
          "name": "_name",
          "type": "string"
        },
        {
          "internalType": "string",
          "name": "_addr",
          "type": "string"
        },
        {
          "internalType": "bool",
          "name": "_isSpotAvailable",
          "type": "bool"
        },
        {
          "internalType": "uint256",
          "name": "_pricePerHour",
          "type": "uint256"
        },
        {
          "internalType": "uint256",
          "name": "_lat",
          "type": "uint256"
        },
        {
          "internalType": "uint256",
          "name": "_long",
          "type": "uint256"
        }
      ],
      "name": "giveRent",
      "outputs": [],
      "stateMutability": "nonpayable",
      "type": "function"
    },
    {
      "inputs": [
        {
          "internalType": "uint256",
          "name": "",
          "type": "uint256"
        }
      ],
      "name": "spotForRent",
      "outputs": [
        {
          "internalType": "address",
          "name": "id",
          "type": "address"
        },
        {
          "internalType": "string",
          "name": "name",
          "type": "string"
        },
        {
          "internalType": "string",
          "name": "addr",
          "type": "string"
        },
        {
          "internalType": "bool",
          "name": "isSpotAvailable",
          "type": "bool"
        },
        {
          "internalType": "uint256",
          "name": "pricePerHour",
          "type": "uint256"
        },
        {
          "internalType": "uint256",
          "name": "lat",
          "type": "uint256"
        },
        {
          "internalType": "uint256",
          "name": "long",
          "type": "uint256"
        }
      ],
      "stateMutability": "view",
      "type": "function"
    }
  ],
  "bytecode": "0x608060405234801561001057600080fd5b50612074806100206000396000f3fe608060405234801561001057600080fd5b50600436106100625760003560e01c8063297fd176146100675780639f05434c1461009d5780639f200d92146100bb578063a06a1f69146100d7578063f5d6e6731461010f578063fa89dd3c1461012b575b600080fd5b610081600480360381019061007c9190611094565b610149565b60405161009497969594939291906111bc565b60405180910390f35b6100a56102d8565b6040516100b29190611415565b60405180910390f35b6100d560048036038101906100d09190611598565b6104ea565b005b6100f160048036038101906100ec9190611094565b610700565b6040516101069998979695949392919061165d565b60405180910390f35b61012960048036038101906101249190611739565b610a26565b005b610133610c9c565b6040516101409190611a32565b60405180910390f35b6000818154811061015957600080fd5b90600052602060002090600702016000915090508060000160009054906101000a900473ffffffffffffffffffffffffffffffffffffffff16908060010180546101a290611a83565b80601f01602080910402602001604051908101604052809291908181526020018280546101ce90611a83565b801561021b5780601f106101f05761010080835404028352916020019161021b565b820191906000526020600020905b8154815290600101906020018083116101fe57829003601f168201915b50505050509080600201805461023090611a83565b80601f016020809104026020016040519081016040528092919081815260200182805461025c90611a83565b80156102a95780601f1061027e576101008083540402835291602001916102a9565b820191906000526020600020905b81548152906001019060200180831161028c57829003601f168201915b5050505050908060030160009054906101000a900460ff16908060040154908060050154908060060154905087565b60606000805480602002602001604051908101604052809291908181526020016000905b828210156104e157838290600052602060002090600702016040518060e00160405290816000820160009054906101000a900473ffffffffffffffffffffffffffffffffffffffff1673ffffffffffffffffffffffffffffffffffffffff1673ffffffffffffffffffffffffffffffffffffffff16815260200160018201805461038590611a83565b80601f01602080910402602001604051908101604052809291908181526020018280546103b190611a83565b80156103fe5780601f106103d3576101008083540402835291602001916103fe565b820191906000526020600020905b8154815290600101906020018083116103e157829003601f168201915b5050505050815260200160028201805461041790611a83565b80601f016020809104026020016040519081016040528092919081815260200182805461044390611a83565b80156104905780601f1061046557610100808354040283529160200191610490565b820191906000526020600020905b81548152906001019060200180831161047357829003601f168201915b505050505081526020016003820160009054906101000a900460ff161515151581526020016004820154815260200160058201548152602001600682015481525050815260200190600101906102fc565b50505050905090565b600085511161052e576040517f08c379a000000000000000000000000000000000000000000000000000000000815260040161052590611b00565b60405180910390fd5b60008311610571576040517f08c379a000000000000000000000000000000000000000000000000000000000815260040161056890611b92565b60405180910390fd5b60006040518060e001604052803373ffffffffffffffffffffffffffffffffffffffff1681526020018881526020018781526020018615158152602001858152602001848152602001838152509050600081908060018154018082558091505060019003906000526020600020906007020160009091909190915060008201518160000160006101000a81548173ffffffffffffffffffffffffffffffffffffffff021916908373ffffffffffffffffffffffffffffffffffffffff16021790555060208201518160010190816106489190611d5e565b50604082015181600201908161065e9190611d5e565b5060608201518160030160006101000a81548160ff0219169083151502179055506080820151816004015560a0820151816005015560c0820151816006015550503373ffffffffffffffffffffffffffffffffffffffff167fb892cdff7ecd2cb9009138f0b090da18e4af32b8422b931b174db218ade80a5e8888888888886040516106ef96959493929190611e30565b60405180910390a250505050505050565b6001818154811061071057600080fd5b90600052602060002090600902016000915090508060000160009054906101000a900473ffffffffffffffffffffffffffffffffffffffff169080600101805461075990611a83565b80601f016020809104026020016040519081016040528092919081815260200182805461078590611a83565b80156107d25780601f106107a7576101008083540402835291602001916107d2565b820191906000526020600020905b8154815290600101906020018083116107b557829003601f168201915b5050505050908060020180546107e790611a83565b80601f016020809104026020016040519081016040528092919081815260200182805461081390611a83565b80156108605780601f1061083557610100808354040283529160200191610860565b820191906000526020600020905b81548152906001019060200180831161084357829003601f168201915b50505050509080600301805461087590611a83565b80601f01602080910402602001604051908101604052809291908181526020018280546108a190611a83565b80156108ee5780601f106108c3576101008083540402835291602001916108ee565b820191906000526020600020905b8154815290600101906020018083116108d157829003601f168201915b50505050509080600401805461090390611a83565b80601f016020809104026020016040519081016040528092919081815260200182805461092f90611a83565b801561097c5780601f106109515761010080835404028352916020019161097c565b820191906000526020600020905b81548152906001019060200180831161095f57829003601f168201915b50505050509080600501805461099190611a83565b80601f01602080910402602001604051908101604052809291908181526020018280546109bd90611a83565b8015610a0a5780601f106109df57610100808354040283529160200191610a0a565b820191906000526020600020905b8154815290600101906020018083116109ed57829003601f168201915b5050505050908060060154908060070154908060080154905089565b600073ffffffffffffffffffffffffffffffffffffffff168973ffffffffffffffffffffffffffffffffffffffff1603610a95576040517f08c379a0000000000000000000000000000000000000000000000000000000008152600401610a8c90611f11565b60405180910390fd5b6000885111610ad9576040517f08c379a0000000000000000000000000000000000000000000000000000000008152600401610ad090611f7d565b60405180910390fd5b60006040518061012001604052808b73ffffffffffffffffffffffffffffffffffffffff1681526020018a8152602001898152602001888152602001878152602001868152602001858152602001848152602001838152509050600181908060018154018082558091505060019003906000526020600020906009020160009091909190915060008201518160000160006101000a81548173ffffffffffffffffffffffffffffffffffffffff021916908373ffffffffffffffffffffffffffffffffffffffff1602179055506020820151816001019081610bbb9190611d5e565b506040820151816002019081610bd19190611d5e565b506060820151816003019081610be79190611d5e565b506080820151816004019081610bfd9190611d5e565b5060a0820151816005019081610c139190611d5e565b5060c0820151816006015560e08201518160070155610100820151816008015550508973ffffffffffffffffffffffffffffffffffffffff167e672e555e662aea957b478685d927324950a1e70eeb88447d71b6991e2627718a8a8a8a8a8a8a8a604051610c88989796959493929190611f9d565b60405180910390a250505050505050505050565b60606001805480602002602001604051908101604052809291908181526020016000905b828210156110415783829060005260206000209060090201604051806101200160405290816000820160009054906101000a900473ffffffffffffffffffffffffffffffffffffffff1673ffffffffffffffffffffffffffffffffffffffff1673ffffffffffffffffffffffffffffffffffffffff168152602001600182018054610d4a90611a83565b80601f0160208091040260200160405190810160405280929190818152602001828054610d7690611a83565b8015610dc35780601f10610d9857610100808354040283529160200191610dc3565b820191906000526020600020905b815481529060010190602001808311610da657829003601f168201915b50505050508152602001600282018054610ddc90611a83565b80601f0160208091040260200160405190810160405280929190818152602001828054610e0890611a83565b8015610e555780601f10610e2a57610100808354040283529160200191610e55565b820191906000526020600020905b815481529060010190602001808311610e3857829003601f168201915b50505050508152602001600382018054610e6e90611a83565b80601f0160208091040260200160405190810160405280929190818152602001828054610e9a90611a83565b8015610ee75780601f10610ebc57610100808354040283529160200191610ee7565b820191906000526020600020905b815481529060010190602001808311610eca57829003601f168201915b50505050508152602001600482018054610f0090611a83565b80601f0160208091040260200160405190810160405280929190818152602001828054610f2c90611a83565b8015610f795780601f10610f4e57610100808354040283529160200191610f79565b820191906000526020600020905b815481529060010190602001808311610f5c57829003601f168201915b50505050508152602001600582018054610f9290611a83565b80601f0160208091040260200160405190810160405280929190818152602001828054610fbe90611a83565b801561100b5780601f10610fe05761010080835404028352916020019161100b565b820191906000526020600020905b815481529060010190602001808311610fee57829003601f168201915b50505050508152602001600682015481526020016007820154815260200160088201548152505081526020019060010190610cc0565b50505050905090565b6000604051905090565b600080fd5b600080fd5b6000819050919050565b6110718161105e565b811461107c57600080fd5b50565b60008135905061108e81611068565b92915050565b6000602082840312156110aa576110a9611054565b5b60006110b88482850161107f565b91505092915050565b600073ffffffffffffffffffffffffffffffffffffffff82169050919050565b60006110ec826110c1565b9050919050565b6110fc816110e1565b82525050565b600081519050919050565b600082825260208201905092915050565b60005b8381101561113c578082015181840152602081019050611121565b60008484015250505050565b6000601f19601f8301169050919050565b600061116482611102565b61116e818561110d565b935061117e81856020860161111e565b61118781611148565b840191505092915050565b60008115159050919050565b6111a781611192565b82525050565b6111b68161105e565b82525050565b600060e0820190506111d1600083018a6110f3565b81810360208301526111e38189611159565b905081810360408301526111f78188611159565b9050611206606083018761119e565b61121360808301866111ad565b61122060a08301856111ad565b61122d60c08301846111ad565b98975050505050505050565b600081519050919050565b600082825260208201905092915050565b6000819050602082019050919050565b61126e816110e1565b82525050565b600082825260208201905092915050565b600061129082611102565b61129a8185611274565b93506112aa81856020860161111e565b6112b381611148565b840191505092915050565b6112c781611192565b82525050565b6112d68161105e565b82525050565b600060e0830160008301516112f46000860182611265565b506020830151848203602086015261130c8282611285565b915050604083015184820360408601526113268282611285565b915050606083015161133b60608601826112be565b50608083015161134e60808601826112cd565b5060a083015161136160a08601826112cd565b5060c083015161137460c08601826112cd565b508091505092915050565b600061138b83836112dc565b905092915050565b6000602082019050919050565b60006113ab82611239565b6113b58185611244565b9350836020820285016113c785611255565b8060005b8581101561140357848403895281516113e4858261137f565b94506113ef83611393565b925060208a019950506001810190506113cb565b50829750879550505050505092915050565b6000602082019050818103600083015261142f81846113a0565b905092915050565b600080fd5b600080fd5b7f4e487b7100000000000000000000000000000000000000000000000000000000600052604160045260246000fd5b61147982611148565b810181811067ffffffffffffffff8211171561149857611497611441565b5b80604052505050565b60006114ab61104a565b90506114b78282611470565b919050565b600067ffffffffffffffff8211156114d7576114d6611441565b5b6114e082611148565b9050602081019050919050565b82818337600083830152505050565b600061150f61150a846114bc565b6114a1565b90508281526020810184848401111561152b5761152a61143c565b5b6115368482856114ed565b509392505050565b600082601f83011261155357611552611437565b5b81356115638482602086016114fc565b91505092915050565b61157581611192565b811461158057600080fd5b50565b6000813590506115928161156c565b92915050565b60008060008060008060c087890312156115b5576115b4611054565b5b600087013567ffffffffffffffff8111156115d3576115d2611059565b5b6115df89828a0161153e565b965050602087013567ffffffffffffffff811115611600576115ff611059565b5b61160c89828a0161153e565b955050604061161d89828a01611583565b945050606061162e89828a0161107f565b935050608061163f89828a0161107f565b92505060a061165089828a0161107f565b9150509295509295509295565b600061012082019050611673600083018c6110f3565b8181036020830152611685818b611159565b90508181036040830152611699818a611159565b905081810360608301526116ad8189611159565b905081810360808301526116c18188611159565b905081810360a08301526116d58187611159565b90506116e460c08301866111ad565b6116f160e08301856111ad565b6116ff6101008301846111ad565b9a9950505050505050505050565b611716816110e1565b811461172157600080fd5b50565b6000813590506117338161170d565b92915050565b60008060008060008060008060006101208a8c03121561175c5761175b611054565b5b600061176a8c828d01611724565b99505060208a013567ffffffffffffffff81111561178b5761178a611059565b5b6117978c828d0161153e565b98505060408a013567ffffffffffffffff8111156117b8576117b7611059565b5b6117c48c828d0161153e565b97505060608a013567ffffffffffffffff8111156117e5576117e4611059565b5b6117f18c828d0161153e565b96505060808a013567ffffffffffffffff81111561181257611811611059565b5b61181e8c828d0161153e565b95505060a08a013567ffffffffffffffff81111561183f5761183e611059565b5b61184b8c828d0161153e565b94505060c061185c8c828d0161107f565b93505060e061186d8c828d0161107f565b92505061010061187f8c828d0161107f565b9150509295985092959850929598565b600081519050919050565b600082825260208201905092915050565b6000819050602082019050919050565b6000610120830160008301516118d46000860182611265565b50602083015184820360208601526118ec8282611285565b915050604083015184820360408601526119068282611285565b915050606083015184820360608601526119208282611285565b9150506080830151848203608086015261193a8282611285565b91505060a083015184820360a08601526119548282611285565b91505060c083015161196960c08601826112cd565b5060e083015161197c60e08601826112cd565b506101008301516119916101008601826112cd565b508091505092915050565b60006119a883836118bb565b905092915050565b6000602082019050919050565b60006119c88261188f565b6119d2818561189a565b9350836020820285016119e4856118ab565b8060005b85811015611a205784840389528151611a01858261199c565b9450611a0c836119b0565b925060208a019950506001810190506119e8565b50829750879550505050505092915050565b60006020820190508181036000830152611a4c81846119bd565b905092915050565b7f4e487b7100000000000000000000000000000000000000000000000000000000600052602260045260246000fd5b60006002820490506001821680611a9b57607f821691505b602082108103611aae57611aad611a54565b5b50919050565b7f416464726573732063616e6e6f7420626520656d7074792e0000000000000000600082015250565b6000611aea60188361110d565b9150611af582611ab4565b602082019050919050565b60006020820190508181036000830152611b1981611add565b9050919050565b7f50726963652070657220686f7572206d7573742062652067726561746572207460008201527f68616e207a65726f2e0000000000000000000000000000000000000000000000602082015250565b6000611b7c60298361110d565b9150611b8782611b20565b604082019050919050565b60006020820190508181036000830152611bab81611b6f565b9050919050565b60008190508160005260206000209050919050565b60006020601f8301049050919050565b600082821b905092915050565b600060088302611c147fffffffffffffffffffffffffffffffffffffffffffffffffffffffffffffffff82611bd7565b611c1e8683611bd7565b95508019841693508086168417925050509392505050565b6000819050919050565b6000611c5b611c56611c518461105e565b611c36565b61105e565b9050919050565b6000819050919050565b611c7583611c40565b611c89611c8182611c62565b848454611be4565b825550505050565b600090565b611c9e611c91565b611ca9818484611c6c565b505050565b5b81811015611ccd57611cc2600082611c96565b600181019050611caf565b5050565b601f821115611d1257611ce381611bb2565b611cec84611bc7565b81016020851015611cfb578190505b611d0f611d0785611bc7565b830182611cae565b50505b505050565b600082821c905092915050565b6000611d3560001984600802611d17565b1980831691505092915050565b6000611d4e8383611d24565b9150826002028217905092915050565b611d6782611102565b67ffffffffffffffff811115611d8057611d7f611441565b5b611d8a8254611a83565b611d95828285611cd1565b600060209050601f831160018114611dc85760008415611db6578287015190505b611dc08582611d42565b865550611e28565b601f198416611dd686611bb2565b60005b82811015611dfe57848901518255600182019150602085019450602081019050611dd9565b86831015611e1b5784890151611e17601f891682611d24565b8355505b6001600288020188555050505b505050505050565b600060c0820190508181036000830152611e4a8189611159565b90508181036020830152611e5e8188611159565b9050611e6d604083018761119e565b611e7a60608301866111ad565b611e8760808301856111ad565b611e9460a08301846111ad565b979650505050505050565b7f426f6f6b65722049442063616e6e6f7420626520746865207a65726f2061646460008201527f726573732e000000000000000000000000000000000000000000000000000000602082015250565b6000611efb60258361110d565b9150611f0682611e9f565b604082019050919050565b60006020820190508181036000830152611f2a81611eee565b9050919050565b7f426f6f6b6572206e616d652063616e6e6f7420626520656d7074792e00000000600082015250565b6000611f67601c8361110d565b9150611f7282611f31565b602082019050919050565b60006020820190508181036000830152611f9681611f5a565b9050919050565b6000610100820190508181036000830152611fb8818b611159565b90508181036020830152611fcc818a611159565b90508181036040830152611fe08189611159565b90508181036060830152611ff48188611159565b905081810360808301526120088187611159565b905061201760a08301866111ad565b61202460c08301856111ad565b61203160e08301846111ad565b999850505050505050505056fea26469706673582212208a2ea9991da24f5eefe51618e26c7447294c10e78b2f2c481e6cdbfb3670139864736f6c63430008180033",
  "linkReferences": {},
  "deployedLinkReferences": {}
}